{
  "_format": "hh-sol-artifact-1",
  "contractName": "Agroblockchain",
  "sourceName": "src/contracts/Agroblockchain.sol",
  "abi": [
    {
      "inputs": [],
      "stateMutability": "nonpayable",
      "type": "constructor"
    },
    {
      "anonymous": false,
      "inputs": [
        {
          "indexed": false,
          "internalType": "uint256",
          "name": "id",
          "type": "uint256"
        },
        {
          "indexed": false,
          "internalType": "string",
          "name": "actionType",
          "type": "string"
        },
        {
          "indexed": true,
          "internalType": "address",
          "name": "executor",
          "type": "address"
        },
        {
          "indexed": false,
          "internalType": "uint256",
          "name": "timestamp",
          "type": "uint256"
        }
      ],
      "name": "Action",
      "type": "event"
    },
    {
      "inputs": [],
      "name": "Balance",
      "outputs": [
        {
          "internalType": "uint256",
          "name": "",
          "type": "uint256"
        }
      ],
      "stateMutability": "view",
      "type": "function"
    },
    {
      "inputs": [
        {
          "internalType": "string",
          "name": "prdname",
          "type": "string"
        },
        {
          "internalType": "uint256",
          "name": "quantity",
          "type": "uint256"
        },
        {
          "internalType": "string",
          "name": "description",
          "type": "string"
        },
        {
          "internalType": "string",
          "name": "imageURL",
          "type": "string"
        },
        {
          "internalType": "uint256",
          "name": "cost",
          "type": "uint256"
        },
        {
          "internalType": "string",
          "name": "loc",
          "type": "string"
        },
        {
          "internalType": "uint256",
          "name": "expiresAt",
          "type": "uint256"
        }
      ],
      "name": "CreateOrders",
      "outputs": [
        {
          "internalType": "bool",
          "name": "",
          "type": "bool"
        }
      ],
      "stateMutability": "nonpayable",
      "type": "function"
    },
    {
      "inputs": [],
      "name": "OrdersCount",
      "outputs": [
        {
          "internalType": "uint256",
          "name": "",
          "type": "uint256"
        }
      ],
      "stateMutability": "view",
      "type": "function"
    },
    {
      "inputs": [],
      "name": "deliverycount",
      "outputs": [
        {
          "internalType": "uint256",
          "name": "",
          "type": "uint256"
        }
      ],
      "stateMutability": "view",
      "type": "function"
    },
    {
      "inputs": [
        {
          "internalType": "uint256",
          "name": "id",
          "type": "uint256"
        }
      ],
      "name": "getBuyer",
      "outputs": [
        {
          "components": [
            {
              "internalType": "address",
              "name": "owner",
              "type": "address"
            },
            {
              "internalType": "uint256",
              "name": "boughtquantity",
              "type": "uint256"
            },
            {
              "internalType": "string",
              "name": "buyerloc",
              "type": "string"
            },
            {
              "internalType": "string",
              "name": "buyeremail",
              "type": "string"
            },
            {
              "internalType": "uint256",
              "name": "price",
              "type": "uint256"
            },
            {
              "internalType": "uint256",
              "name": "timestamp",
              "type": "uint256"
            }
          ],
          "internalType": "struct Agroblockchain.buyerStruct[]",
          "name": "",
          "type": "tuple[]"
        }
      ],
      "stateMutability": "view",
      "type": "function"
    },
    {
      "inputs": [
        {
          "internalType": "uint256",
          "name": "id",
          "type": "uint256"
        }
      ],
      "name": "getOrder",
      "outputs": [
        {
          "components": [
            {
              "internalType": "uint256",
              "name": "id",
              "type": "uint256"
            },
            {
              "internalType": "address payable",
              "name": "owner",
              "type": "address"
            },
            {
              "internalType": "string",
              "name": "prdname",
              "type": "string"
            },
            {
              "internalType": "uint256",
              "name": "quantity",
              "type": "uint256"
            },
            {
              "internalType": "string",
              "name": "description",
              "type": "string"
            },
            {
              "internalType": "string",
              "name": "imageURL",
              "type": "string"
            },
            {
              "internalType": "uint256",
              "name": "cost",
              "type": "uint256"
            },
            {
              "internalType": "string",
              "name": "loc",
              "type": "string"
            },
            {
              "internalType": "uint256",
              "name": "timestamp",
              "type": "uint256"
            },
            {
              "internalType": "uint256",
              "name": "expiresAt",
              "type": "uint256"
            }
          ],
          "internalType": "struct Agroblockchain.OrdersStruct",
          "name": "",
          "type": "tuple"
        }
      ],
      "stateMutability": "view",
      "type": "function"
    },
    {
      "inputs": [],
      "name": "getOrders",
      "outputs": [
        {
          "components": [
            {
              "internalType": "uint256",
              "name": "id",
              "type": "uint256"
            },
            {
              "internalType": "address payable",
              "name": "owner",
              "type": "address"
            },
            {
              "internalType": "string",
              "name": "prdname",
              "type": "string"
            },
            {
              "internalType": "uint256",
              "name": "quantity",
              "type": "uint256"
            },
            {
              "internalType": "string",
              "name": "description",
              "type": "string"
            },
            {
              "internalType": "string",
              "name": "imageURL",
              "type": "string"
            },
            {
              "internalType": "uint256",
              "name": "cost",
              "type": "uint256"
            },
            {
              "internalType": "string",
              "name": "loc",
              "type": "string"
            },
            {
              "internalType": "uint256",
              "name": "timestamp",
              "type": "uint256"
            },
            {
              "internalType": "uint256",
              "name": "expiresAt",
              "type": "uint256"
            }
          ],
          "internalType": "struct Agroblockchain.OrdersStruct[]",
          "name": "",
          "type": "tuple[]"
        }
      ],
      "stateMutability": "view",
      "type": "function"
    },
    {
      "inputs": [],
      "name": "getOrdersCount",
      "outputs": [
        {
          "internalType": "uint256",
          "name": "",
          "type": "uint256"
        }
      ],
      "stateMutability": "view",
      "type": "function"
    },
    {
      "inputs": [
        {
          "internalType": "string",
          "name": "rev",
          "type": "string"
        },
        {
          "internalType": "uint256",
          "name": "rat",
          "type": "uint256"
        }
      ],
      "name": "getReview",
      "outputs": [],
      "stateMutability": "nonpayable",
      "type": "function"
    },
    {
      "inputs": [],
      "name": "getReviewlist",
      "outputs": [
        {
          "components": [
            {
              "internalType": "string",
              "name": "review",
              "type": "string"
            },
            {
              "internalType": "uint256",
              "name": "rating",
              "type": "uint256"
            }
          ],
          "internalType": "struct Agroblockchain.ReviewStruct[]",
          "name": "",
          "type": "tuple[]"
        }
      ],
      "stateMutability": "view",
      "type": "function"
    },
    {
      "inputs": [],
      "name": "getpurchaseCount",
      "outputs": [
        {
          "internalType": "uint256",
          "name": "",
          "type": "uint256"
        }
      ],
      "stateMutability": "view",
      "type": "function"
    },
    {
      "inputs": [],
      "name": "owner",
      "outputs": [
        {
          "internalType": "address",
          "name": "",
          "type": "address"
        }
      ],
      "stateMutability": "view",
      "type": "function"
    },
    {
      "inputs": [],
      "name": "purchaseCount",
      "outputs": [
        {
          "internalType": "uint256",
          "name": "",
          "type": "uint256"
        }
      ],
      "stateMutability": "view",
      "type": "function"
    },
    {
      "inputs": [
        {
          "internalType": "uint256",
          "name": "id",
          "type": "uint256"
        },
        {
          "internalType": "uint256",
          "name": "quantity",
          "type": "uint256"
        },
        {
          "internalType": "string",
          "name": "buyeremail",
          "type": "string"
        },
        {
          "internalType": "string",
          "name": "buyerloc",
          "type": "string"
        }
      ],
      "name": "purchaseOrder",
      "outputs": [],
      "stateMutability": "payable",
      "type": "function"
    },
    {
      "inputs": [],
      "name": "stats",
      "outputs": [
        {
          "internalType": "uint256",
          "name": "totalorders",
          "type": "uint256"
        }
      ],
      "stateMutability": "view",
      "type": "function"
    }
  ],
  "bytecode": "0x608060405234801561001057600080fd5b50600080546001600160a01b03191633179055611bbe806100326000396000f3fe6080604052600436106100e85760003560e01c80635bf608b81161008a5780638da5cb5b116100595780638da5cb5b14610247578063b5b3b0511461027f578063d09ef24114610294578063d80528ae146102c157600080fd5b80635bf608b8146101ce57806363020d39146101fb5780636dcb1d4c1461021b5780636f9867bc1461023157600080fd5b80632b85ed9c116100c65780632b85ed9c146101515780632c872a0f146101675780632e2dc43e146101975780633f2a5264146101b957600080fd5b8063094f1c4e146100ed5780630ef67887146101185780631a9d9fce1461013c575b600080fd5b3480156100f957600080fd5b506101026102d8565b60405161010f9190611637565b60405180910390f35b34801561012457600080fd5b5061012e60015481565b60405190815260200161010f565b61014f61014a366004611750565b6103d3565b005b34801561015d57600080fd5b5061012e60035481565b34801561017357600080fd5b506101876101823660046117c7565b610741565b604051901515815260200161010f565b3480156101a357600080fd5b506101ac610c9a565b60405161010f9190611950565b3480156101c557600080fd5b5060035461012e565b3480156101da57600080fd5b506101ee6101e93660046119b2565b610f81565b60405161010f91906119cb565b34801561020757600080fd5b5061014f610216366004611a78565b61114b565b34801561022757600080fd5b5061012e60025481565b34801561023d57600080fd5b5061012e60045481565b34801561025357600080fd5b50600054610267906001600160a01b031681565b6040516001600160a01b03909116815260200161010f565b34801561028b57600080fd5b5060025461012e565b3480156102a057600080fd5b506102b46102af3660046119b2565b6111be565b60405161010f9190611abd565b3480156102cd57600080fd5b5060055461012e9081565b60606007805480602002602001604051908101604052809291908181526020016000905b828210156103ca578382906000526020600020906002020160405180604001604052908160008201805461032f90611ad7565b80601f016020809104026020016040519081016040528092919081815260200182805461035b90611ad7565b80156103a85780601f1061037d576101008083540402835291602001916103a8565b820191906000526020600020905b81548152906001019060200180831161038b57829003601f168201915b50505050508152602001600182015481525050815260200190600101906102fc565b50505050905090565b6000848152600a602052604090205460ff1661042a5760405162461bcd60e51b8152602060048201526011602482015270141c9bda9958dd081b9bdd08199bdd5b99607a1b60448201526064015b60405180910390fd5b60006006858154811061043f5761043f611b12565b90600052602060002090600a020160010160009054906101000a90046001600160a01b031690506006858154811061047957610479611b12565b90600052602060002090600a020160030154600014156104d15760405162461bcd60e51b815260206004820152601360248201527253746f636b206e6f7420617661696c61626c6560681b6044820152606401610421565b336001600160a01b0316600686815481106104ee576104ee611b12565b600091825260209091206001600a9092020101546001600160a01b031614156105595760405162461bcd60e51b815260206004820152601e60248201527f596f752063616e27742062757920796f7572206f776e2070726f6475637400006044820152606401610421565b836006868154811061056d5761056d611b12565b90600052602060002090600a0201600301546105899190611b3e565b6006868154811061059c5761059c611b12565b90600052602060002090600a020160030181905550806001600160a01b03166108fc349081150290604051600060405180830381858888f193505050501580156105ea573d6000803e3d6000fd5b50600380549060006105fb83611b55565b90915550506000858152600960209081526040808320815160c081018352338152808401898152928101878152606082018990523460808301524260a083015282546001808201855593875295859020825160069097020180546001600160a01b0319166001600160a01b0390971696909617865592519185019190915590518051919392610692926002850192909101906114f5565b50606082015180516106ae9160038401916020909101906114f5565b506080820151816004015560a082015181600501555050336001600160a01b03167faee8e5d3bbb2f71a951b5632cee20f7ac487b9f8ab4f66a236f7694b13af7c6a864260405161073292919091825260606020830181905260119083015270141493d29150d50814155490d21054d151607a1b6080830152604082015260a00190565b60405180910390a25050505050565b6000808851116107935760405162461bcd60e51b815260206004820152601c60248201527f50726f64756374204e616d652063616e6e6f7420626520656d707479000000006044820152606401610421565b600087116107e35760405162461bcd60e51b815260206004820152601860248201527f5175616e746974792063616e6e6f7420626520656d70747900000000000000006044820152606401610421565b60008651116108345760405162461bcd60e51b815260206004820152601b60248201527f4465736372697074696f6e2063616e6e6f7420626520656d70747900000000006044820152606401610421565b6000841161087c5760405162461bcd60e51b815260206004820152601560248201527450726963652063616e6e6f7420626520657870747960581b6044820152606401610421565b60008351116108cd5760405162461bcd60e51b815260206004820152601860248201527f4c6f636174696f6e2063616e6e6f7420626520656d70747900000000000000006044820152606401610421565b6000821161091d5760405162461bcd60e51b815260206004820152601b60248201527f45787069727920646174652063616e6e6f7420626520656d70747900000000006044820152606401610421565b600085511161096e5760405162461bcd60e51b815260206004820152601860248201527f496d61676555524c2063616e6e6f7420626520656d70747900000000000000006044820152606401610421565b610976611579565b6002548152336020808301918252604083018b8152606084018b9052608084018a905260a0840189905260c0840188905260e084018790524261010085015261012084018690526006805460018101825560009190915284517ff652222313e28459528d920b65115c16c04f3efc82aaedc97be59f3f377c0d3f600a90920291820190815593517ff652222313e28459528d920b65115c16c04f3efc82aaedc97be59f3f377c0d40820180546001600160a01b0319166001600160a01b0390921691909117905590518051859493610a72937ff652222313e28459528d920b65115c16c04f3efc82aaedc97be59f3f377c0d41019201906114f5565b506060820151600382015560808201518051610a989160048401916020909101906114f5565b5060a08201518051610ab49160058401916020909101906114f5565b5060c0820151600682015560e08201518051610ada9160078401916020909101906114f5565b5061010082015160088281019190915561012090920151600990910155600280546000908152600a602081815260408084208054600160ff19909116811790915533855295825280842080548088018255908552938290208751949093029092019283558581015194830180546001600160a01b0319166001600160a01b0390961695909517909455840151805185949293610b7b939085019201906114f5565b506060820151600382015560808201518051610ba19160048401916020909101906114f5565b5060a08201518051610bbd9160058401916020909101906114f5565b5060c0820151600682015560e08201518051610be39160078401916020909101906114f5565b50610100820151816008015561012082015181600901555050600160056000016000828254610c129190611b70565b90915550506002805433917faee8e5d3bbb2f71a951b5632cee20f7ac487b9f8ab4f66a236f7694b13af7c6a91906000610c4b83611b55565b9091555060408051918252606060208301819052600d908301526c13d49111548810d49150551151609a1b6080830152429082015260a00160405180910390a250600198975050505050505050565b60606006805480602002602001604051908101604052809291908181526020016000905b828210156103ca5760008481526020908190206040805161014081018252600a86029092018054835260018101546001600160a01b03169383019390935260028301805492939291840191610d1290611ad7565b80601f0160208091040260200160405190810160405280929190818152602001828054610d3e90611ad7565b8015610d8b5780601f10610d6057610100808354040283529160200191610d8b565b820191906000526020600020905b815481529060010190602001808311610d6e57829003601f168201915b5050505050815260200160038201548152602001600482018054610dae90611ad7565b80601f0160208091040260200160405190810160405280929190818152602001828054610dda90611ad7565b8015610e275780601f10610dfc57610100808354040283529160200191610e27565b820191906000526020600020905b815481529060010190602001808311610e0a57829003601f168201915b50505050508152602001600582018054610e4090611ad7565b80601f0160208091040260200160405190810160405280929190818152602001828054610e6c90611ad7565b8015610eb95780601f10610e8e57610100808354040283529160200191610eb9565b820191906000526020600020905b815481529060010190602001808311610e9c57829003601f168201915b5050505050815260200160068201548152602001600782018054610edc90611ad7565b80601f0160208091040260200160405190810160405280929190818152602001828054610f0890611ad7565b8015610f555780601f10610f2a57610100808354040283529160200191610f55565b820191906000526020600020905b815481529060010190602001808311610f3857829003601f168201915b505050505081526020016008820154815260200160098201548152505081526020019060010190610cbe565b606060096000838152602001908152602001600020805480602002602001604051908101604052809291908181526020016000905b828210156111405760008481526020908190206040805160c0810182526006860290920180546001600160a01b031683526001810154938301939093526002830180549293929184019161100990611ad7565b80601f016020809104026020016040519081016040528092919081815260200182805461103590611ad7565b80156110825780601f1061105757610100808354040283529160200191611082565b820191906000526020600020905b81548152906001019060200180831161106557829003601f168201915b5050505050815260200160038201805461109b90611ad7565b80601f01602080910402602001604051908101604052809291908181526020018280546110c790611ad7565b80156111145780601f106110e957610100808354040283529160200191611114565b820191906000526020600020905b8154815290600101906020018083116110f757829003601f168201915b505050505081526020016004820154815260200160058201548152505081526020019060010190610fb6565b505050509050919050565b6040805180820190915282815260208082018390526007805460018101825560009190915282518051849360029093027fa66cc928b5edb82af9bd49922954155ab7b0942694bea4ce44661d9a8736c68801926111ac9284929101906114f5565b50602082015181600101555050505050565b6111c6611579565b6000828152600a602052604090205460ff166112185760405162461bcd60e51b8152602060048201526011602482015270141c9bda9958dd081b9bdd08199bdd5b99607a1b6044820152606401610421565b6006828154811061122b5761122b611b12565b90600052602060002090600a020160405180610140016040529081600082015481526020016001820160009054906101000a90046001600160a01b03166001600160a01b03166001600160a01b0316815260200160028201805461128e90611ad7565b80601f01602080910402602001604051908101604052809291908181526020018280546112ba90611ad7565b80156113075780601f106112dc57610100808354040283529160200191611307565b820191906000526020600020905b8154815290600101906020018083116112ea57829003601f168201915b505050505081526020016003820154815260200160048201805461132a90611ad7565b80601f016020809104026020016040519081016040528092919081815260200182805461135690611ad7565b80156113a35780601f10611378576101008083540402835291602001916113a3565b820191906000526020600020905b81548152906001019060200180831161138657829003601f168201915b505050505081526020016005820180546113bc90611ad7565b80601f01602080910402602001604051908101604052809291908181526020018280546113e890611ad7565b80156114355780601f1061140a57610100808354040283529160200191611435565b820191906000526020600020905b81548152906001019060200180831161141857829003601f168201915b505050505081526020016006820154815260200160078201805461145890611ad7565b80601f016020809104026020016040519081016040528092919081815260200182805461148490611ad7565b80156114d15780601f106114a6576101008083540402835291602001916114d1565b820191906000526020600020905b8154815290600101906020018083116114b457829003601f168201915b50505050508152602001600882015481526020016009820154815250509050919050565b82805461150190611ad7565b90600052602060002090601f0160209004810192826115235760008555611569565b82601f1061153c57805160ff1916838001178555611569565b82800160010185558215611569579182015b8281111561156957825182559160200191906001019061154e565b506115759291506115d5565b5090565b6040518061014001604052806000815260200160006001600160a01b0316815260200160608152602001600081526020016060815260200160608152602001600081526020016060815260200160008152602001600081525090565b5b8082111561157557600081556001016115d6565b6000815180845260005b81811015611610576020818501810151868301820152016115f4565b81811115611622576000602083870101525b50601f01601f19169290920160200192915050565b60006020808301818452808551808352604092508286019150828160051b87010184880160005b8381101561169f57888303603f1901855281518051878552611682888601826115ea565b91890151948901949094529487019492509086019060010161165e565b509098975050505050505050565b634e487b7160e01b600052604160045260246000fd5b600082601f8301126116d457600080fd5b813567ffffffffffffffff808211156116ef576116ef6116ad565b604051601f8301601f19908116603f01168101908282118183101715611717576117176116ad565b8160405283815286602085880101111561173057600080fd5b836020870160208301376000602085830101528094505050505092915050565b6000806000806080858703121561176657600080fd5b8435935060208501359250604085013567ffffffffffffffff8082111561178c57600080fd5b611798888389016116c3565b935060608701359150808211156117ae57600080fd5b506117bb878288016116c3565b91505092959194509250565b600080600080600080600060e0888a0312156117e257600080fd5b873567ffffffffffffffff808211156117fa57600080fd5b6118068b838c016116c3565b985060208a0135975060408a013591508082111561182357600080fd5b61182f8b838c016116c3565b965060608a013591508082111561184557600080fd5b6118518b838c016116c3565b955060808a0135945060a08a013591508082111561186e57600080fd5b5061187b8a828b016116c3565b92505060c0880135905092959891949750929550565b60006101408251845260208301516118b460208601826001600160a01b03169052565b5060408301518160408601526118cc828601826115ea565b91505060608301516060850152608083015184820360808601526118f082826115ea565b91505060a083015184820360a086015261190a82826115ea565b91505060c083015160c085015260e083015184820360e086015261192e82826115ea565b6101008581015190870152610120948501519490950193909352509192915050565b6000602080830181845280855180835260408601915060408160051b870101925083870160005b828110156119a557603f19888603018452611993858351611891565b94509285019290850190600101611977565b5092979650505050505050565b6000602082840312156119c457600080fd5b5035919050565b60006020808301818452808551808352604092508286019150828160051b87010184880160005b8381101561169f57888303603f19018552815180516001600160a01b0316845287810151888501528681015160c088860181905290611a33828701826115ea565b91505060608083015186830382880152611a4d83826115ea565b6080858101519089015260a094850151949097019390935250505093860193908601906001016119f2565b60008060408385031215611a8b57600080fd5b823567ffffffffffffffff811115611aa257600080fd5b611aae858286016116c3565b95602094909401359450505050565b602081526000611ad06020830184611891565b9392505050565b600181811c90821680611aeb57607f821691505b60208210811415611b0c57634e487b7160e01b600052602260045260246000fd5b50919050565b634e487b7160e01b600052603260045260246000fd5b634e487b7160e01b600052601160045260246000fd5b600082821015611b5057611b50611b28565b500390565b6000600019821415611b6957611b69611b28565b5060010190565b60008219821115611b8357611b83611b28565b50019056fea26469706673582212205c99f7c55084fa2d06212e5f1d70e1a2160512f05a7ecce4c599047240765bf664736f6c634300080b0033",
  "linkReferences": {},
  "deployedLinkReferences": {}
}